:0A05F50000010202030304040505DF
:10033200E4F513F512F511F510C203C200C202C2B0
:100342000112069C7E067F008E238F24752B067574
:100352002C1275210675221C752906752A4A752DDF
:1003620006752E78EE54C0700302043175140075C0
:1003720015808E168F17C3749A9FFF74069ECF2422
:1003820002CF3400FEE48F0F8E0EF50DF50CF50B47
:10039200F50AF509F508AF0FAE0EAD0DAC0CAB0BBF
:1003A200AA0AA909A808C31208975031AE0AAF0BCE
:1003B200E5172FF582E5163EF583E0FDE5152FF5ED
:1003C20082E5143EF583EDF0EF2401F50BE43EF5F2
:1003D2000AE43509F509E43508F50880B9851423DE
:1003E20085152474002480FF740634FFFEC3E52CB7
:1003F2009FF52CE52B9EF52BC3E5269FF526E525DB
:100402009EF525C3E5289FF528E5279EF527C3E538
:10041200229FF522E5219EF521C3E52A9FF52AE5D3
:10042200299EF529C3E52E9FF52EE52D9EF52DD2A9
:10043200E843D82090E668E04409F090E65CE044A6
:100442003DF0D2AF90E680E020E105D204120757DA
:1004520090E680E054F7F0538EF8C2031205FF30A5
:100462000105120080C2013003F21208C850EDC229
:100472000312080A20001690E682E030E704E0202A
:10048200E1EF90E682E030E604E020E0E41207B318
:050492001208CA80C73A
:0B04F50090E50DE030E402C322D322AA
:1000800090E6B9E0700302016A14700302021324BF
:10009000FE70030202A924FB7003020164147003C2
:1000A00002015E147003020152147003020158240D
:1000B00005600302031E1208CC400302032A90E6E7
:1000C000BBE024FE603B14605624FD6016146040C3
:1000D00024067074E52390E6B3F0E52490E6B4F0CE
:1000E00002032A1204F5500FE52B90E6B3F0E52C3D
:1000F00090E6B4F002032A90E6A0E04401F0020387
:100100002AE52590E6B3F0E52690E6B4F002032A4E
:10011000E52790E6B3F0E52890E6B4F002032A90D4
:10012000E6BAE0FF1207DFAA06A9077B01EA4960E9
:100130000DEE90E6B3F0EF90E6B4F002032A90E6FD
:10014000A0E04401F002032A90E6A0E04401F0029E
:10015000032A12088502032A1208BC02032A120885
:10016000B402032A12087302032A1208CE400302C3
:10017000032A90E6B8E0247F602B14603C240260E0
:1001800003020209A200E433FF25E0FFA202E433E8
:100190004F90E740F0E4A3F090E68AF090E68B748D
:1001A00002F002032AE490E740F0A3F090E68AF020
:1001B00090E68B7402F002032A90E6BCE0547EFFC6
:1001C0007E00E0D3948040067C007D0180047C00AA
:1001D0007D00EC4EFEED4F24F5F58274053EF5836F
:1001E000E493FF3395E0FEEF24A1FFEE34E68F8227
:1001F000F583E0540190E740F0E4A3F090E68AF044
:1002000090E68B7402F002032A90E6A0E04401F02D
:1002100002032A1208D0400302032A90E6B8E02421
:10022000FE601D2402600302032A90E6BAE0B401D6
:1002300005C20002032A90E6A0E04401F002032A6E
:1002400090E6BAE0705990E6BCE0547EFF7E00E094
:10025000D3948040067C007D0180047C007D00EC0E
:100260004EFEED4F24F5F58274053EF583E493FFD1
:100270003395E0FEEF24A1FFEE34E68F82F583E0B4
:1002800054FEF090E6BCE05480FF131313541FFF9C
:10029000E0540F2F90E683F0E04420F002032A9010
:1002A000E6A0E04401F002032A1208D2507C90E656
:1002B000B8E024FE60202402705B90E6BAE0B4014E
:1002C00004D200806590E6BAE06402605D90E6A02A
:1002D000E04401F0805490E6BCE0547EFF7E00E0F4
:1002E000D3948040067C007D0180047C007D00EC7E
:1002F0004EFEED4F24F5F58274053EF583E493FF41
:100300003395E0FEEF24A1FFEE34E68F82F583E023
:100310004401F0801590E6A0E04401F0800C120743
:1003200086500790E6A0E04401F090E6A0E044800B
:01033000F0DC
:0103310022A9
:030033000208C4FC
:0408C40053D8EF32E4
:10069C0090E600E054E74410F000000090E60B7484
:1006AC0001F000000090E601E04453F000000090DF
:1006BC00E6047480F00000007402F0000000E4F026
:1006CC0000000090E60274C8F000000090E603748D
:1006DC00DEF000000090E6707440F0000000E49042
:1006EC00E609F000000090E61274A2F00000009001
:1006FC00E61374A0F000000090E6187411F00000EE
:10070C000090E6917480F0000000F000000043AF10
:05071C000100000022B5
:0105FF0022D9
:0208C800D32239
:0208CA00D32237
:0208CC00D32235
:0808B40090E6BAE0F51BD32227
:1008730090E740E51BF0E490E68AF090E68B04F005
:02088300D3227E
:0808BC0090E6BAE0F51AD32220
:1008850090E740E51AF0E490E68AF090E68B04F0F4
:02089500D3226C
:0208CE00D32233
:0208D000D32231
:0208D200D3222F
:1007860090E6B9E0242F601204701E90E604E0FFA4
:10079600430780000000EFF0801190E604E0FF536D
:0C07A600077F000000EFF08002D322C3A8
:0107B2002224
:1004DD00C0E0C083C082D2015391EF90E65D7401FC
:0804ED00F0D082D083D0E03290
:10084700C0E0C083C0825391EF90E65D7404F0D09E
:0608570082D083D0E032E4
:10085D00C0E0C083C0825391EF90E65D7402F0D08A
:06086D0082D083D0E032CE
:10072100C0E0C083C082852925852A268526828549
:100731002583A37402F085212785222885288285B7
:100741002783A37407F05391EF90E65D7410F0D006
:0607510082D083D0E032EB
:10082F00C0E0C083C082D2035391EF90E65D74089D
:08083F00F0D082D083D0E0323A
:1005B800C0E0C083C08290E680E030E72085212536
:1005C800852226852682852583A37402F08529271E
:1005D800852A28852882852783A37407F05391EFFD
:0D05E80090E65D7420F0D082D083D0E03228
:0108D40032F1
:0108D50032F0
:0108D60032EF
:0108D70032EE
:0108D80032ED
:0108D90032EC
:0108DA0032EB
:0108DB0032EA
:0108DC0032E9
:0108DD0032E8
:0108DE0032E7
:0108DF0032E6
:0108E00032E5
:0108E10032E4
:0108E20032E3
:0108E30032E2
:0108E40032E1
:0108E50032E0
:0108E60032DF
:0108E70032DE
:0108E80032DD
:0108E90032DC
:0108EA0032DB
:0108EB0032DA
:0108EC0032D9
:0108ED0032D8
:0108EE0032D7
:0108EF0032D6
:0108F00032D5
:0108F10032D4
:0108F20032D3
:0108F30032D2
:0108F40032D1
:0108F50032D0
:0108F60032CF
:0108F70032CE
:100600001201000200000040B404041000000102C6
:1006100000010A06000200000040010009022E004D
:1006200001010080320904000004FF0000000705FA
:10063000020200020007050402000200070586020C
:100640000002000705880200020009022E000101D5
:100650000080320904000004FF00000007050202C8
:100660004000000705040240000007058602400024
:10067000000705880240000004030904100343003A
:100680007900700072006500730073000E0345006E
:0C0690005A002D005500530042000000ED
:1007B30090E682E030E004E020E60B90E682E03051
:1007C300E119E030E71590E680E04401F07F147E04
:0C07D3000012049790E680E054FEF02233
:1007570030040990E680E0440AF0800790E680E0E4
:100767004408F07FDC7E0512049790E65D74FFF085
:0F07770090E65FF05391EF90E680E054F7F022A8
:0207DF00A90768
:1007E100AE2DAF2E8F828E83A3E064037017AD010F
:1007F10019ED7001228F828E83E07C002FFDEC3E8B
:08080100FEAF0580DFE4FEFFFD
:0108090022CC
:10080A0090E682E044C0F090E681F0438701000060
:04081A0000000022B8
:100497008E188F1990E600E054187012E5192401A0
:1004A700FFE43518C313F518EF13F519801590E617
:1004B70000E05418FFBF100BE51925E0F519E51802
:1004C70033F518E5191519AE18700215184E6005A1
:0604D70012081E80EE2257
:10081E007400F58690FDA57C05A3E582458370F9ED
:01082E0022A7
:03004300020500B3
:03005300020500A3
:100500000204DD0002085D000208470002082F0017
:10051000020721000205B8000208D4000208D50035
:100520000208D6000208D7000208D8000208D90045
:100530000208DA000208DB000208DC000208DD0025
:100540000208DE000208D5000208DF000208E00011
:100550000208E1000208E2000208E3000208E400E9
:100560000208E5000208D5000208D5000208D500FF
:100570000208E6000208E7000208E8000208E900B5
:100580000208EA000208EB000208EC000208ED0095
:100590000208EE000208EF000208F0000208F10075
:1005A0000208F2000208F3000208F4000208F50055
:0805B0000208F6000208F70042
:030000000208A84B
:0C08A800787FE4F6D8FD75812E02033243
:10089700EB9FF5F0EA9E42F0E99D42F0E89C45F0B7
:0108A700222E
:00000001FF
